:020000040800F2
:100000009007002029020008ED1300087F12000865
:10001000E91300080105000891190008000000001C
:10002000000000000000000000000000F1130008C4
:100030000505000800000000EF130008F313000896
:10004000430200084302000843020008430200087C
:10005000430200084302000843020008430200086C
:10006000430200084302000843020008430200085C
:10007000430200084302000843020008430200084C
:10008000430200084302000843020008430200083C
:10009000430200084302000843020008430200082C
:1000A000430200084302000843020008430200081C
:1000B000430200084302000843020008430200080C
:1000C00043020008430200084302000843020008FC
:1000D00043020008E9180008430200084302000830
:1000E00043020008430200084302000843020008DC
:1000F00043020008430200084302000843020008CC
:1001000043020008430200084302000843020008BB
:1001100043020008430200084302000843020008AB
:10012000430200084302000843020008430200089B
:10013000430200084302000843020008430200088B
:10014000430200084302000843020008430200087B
:100150004302000843020008430200084119000856
:10016000430200084302000843020008430200085B
:100170004302000843020008430200080000000098
:10018000430200084302000800F002F800F03CF8C7
:100190000AA090E8000C82448344AAF10107DA45E2
:1001A00001D100F031F8AFF2090EBAE80F0013F0F8
:1001B000010F18BFFB1A43F001031847781800001D
:1001C00098180000103A24BF78C878C1FAD85207AE
:1001D00024BF30C830C144BF04680C6070470000C1
:1001E0000023002400250026103A28BF78C1FBD840
:1001F000520728BF30C148BF0B6070471FB501F0E0
:1002000007FC1FBD10B510BD00F0CFF81146FFF779
:10021000F5FF01F0DBFB00F0EDF803B4FFF7F2FFB0
:1002200003BC00F0F5F80000094880470948004782
:10023000FEE7FEE7FEE7FEE7FEE7FEE7FEE7FEE796
:10024000FEE7FEE704480549054A064B70470000F3
:10025000B1140008890100089001002090070020D7
:10026000900300209003002053EA020C00F0698004
:100270002DE9F04B4FF00006002B1FBFB3FA83F5BA
:1002800003FA05F424FA05F65E4012BF1643B2FAEB
:1002900082F502FA05F4C5F120051EBF22FA05FC1D
:1002A00044EA0C04203556EA044C4FEA144418BFC3
:1002B000641C4FF000084FF00009904271EB030CF2
:1002C00039D3002919BFB1FA81F701FA07F6B0FA5C
:1002D00080F700FA07F6C7F120071EBF20FA07FCD7
:1002E00046EA0C062037B6FBF4FCA7EB0507103FE7
:1002F00007F01F0BCBF120060CFA0BFB2CFA06F6CD
:1003000044BFB3460026202FA4BF5E464FF0000B2B
:100310005BEA060C08BF4FF0010B19EB0B09ABFBB6
:10032000027C48EB0608C01B06FB02CC0BFB03CC8F
:1003300071EB0C01C1E70B46024641464846BDE859
:10034000F08B13B54FF000004FF00001AFF30080C9
:10035000BDE81C4070474FF0000200B513469446BC
:100360009646203922BFA0E80C50A0E80C50B1F10D
:100370002001BFF4F7AF090728BFA0E80C5048BF21
:100380000CC05DF804EB890028BF40F8042B08BFBF
:10039000704748BF20F8022B11F0804F18BF00F8BB
:1003A000012B7047704770477047754600F02CF876
:1003B000AE4605006946534620F00700854618B052
:1003C00020B5FFF73FFFBDE820404FF000064FF09B
:1003D00000074FF000084FF0000B21F00701AC467A
:1003E000ACE8C009ACE8C009ACE8C009ACE8C00999
:1003F0008D46704710B50446AFF300802046BDE837
:100400001040FFF70ABF000000487047300100208D
:1004100001491820ABBEFEE726000200704700002D
:100420000FB42DE9FC4100260027002409A8009004
:10043000AA222146641C30484254FF222146641CF3
:100440004254F1222146641C42549DF8200080064B
:10045000020E2146641C2848425421E0009800689E
:1004600001900098001D00909DF804202046611C1A
:10047000CCB221490A549DF805202046611CCCB21B
:100480001D490A549DF806202046611CCCB21A4929
:100490000A549DF807202146601CC4B216484254F5
:1004A0009DF82010481EC0B208900029D6D1002027
:1004B0000090002506E01048405D3044C6B2B819EF
:1004C000C7B26D1C0C48C078001DA842F3DC204662
:1004D000611CCCB208490E542046611CCCB20649BE
:1004E0000F5440F6FF732246044800F05DFEBDE85D
:1004F000FC015DF814FB0000CC0000204C00002043
:1005000000BFFEE770477047F8B502460B4600256E
:10051000002400200021DCE0012606FA01F51E6817
:1005200006EA0504AC4273D15E68022E02D05E6812
:10053000122E13D1CF0802F1200656F827004E07DD
:10054000F70E0F26BE40B0434F07FF0E1E69BE4098
:100550003043CF0802F1200646F8270010684F000C
:100560000326BE40B0431E7906F003064F00BE408E
:10057000304310605E68012E08D05E68022E05D000
:100580005E68112E02D05E68122E13D190684F0063
:100590000326BE40B0434F00DE68BE40304390604B
:1005A000506801268E40B0431E79C6F300168E4077
:1005B00030435060D0684F000326BE40B0434F0028
:1005C0009E68BE403043D0605E6806F08056B6F14B
:1005D000805F7DD100BF00260096404E366846F40D
:1005E00080463E4F3E603E46366806F480460096A2
:1005F00000BF00BF3A4E8F0856F827008E07370F0E
:100600000F26BE40B043374EB24202D1002624E04E
:100610005EE0354EB24201D101261EE0334EB242B9
:1006200001D1022619E0324EB24201D1032614E074
:10063000304EB24201D104260FE02F4EB24201D11A
:1006400005260AE02D4EB24201D1062605E02C4EC9
:10065000B24201D1072600E008268F073F0FBE40B7
:1006600030431F4E8F0846F82700264E3068A043BF
:100670005E6806F48036B6F5803F00D12043214EF7
:100680003060361D3068A0435E6806F40036B6F56B
:10069000003F00D120431B4E361D3060361D3068B0
:1006A000A0435E6806F48016B6F5801F00D1204393
:1006B000144E08363060361D3068A0435E6806F47C
:1006C0000016B6F5001F00D120430E4E0C363060E8
:1006D000491C1029FFF420AFF8BD00004438024047
:1006E00008380140000002400004024000080240B7
:1006F000000C0240001002400014024000180240AA
:10070000001C0240003C014042690A408A4202D17A
:100710000A04826100E0816170470AB1816101E0F1
:100720000B048361704700000148006870470000B7
:10073000080000200348006803490978084401497B
:1007400008607047080000201000002010B50D4818
:10075000006840F400700B4908600846006840F4E7
:10076000806008600846006840F4807008600320DC
:1007700000F0A2F8002000F007F800F02BF80020AD
:1007800010BD0000003C024070B504460E480078E1
:100790004FF47A71B1FBF0F00C490968B1FBF0F548
:1007A000284600F0FFFB08B1012070BD102C07D2D5
:1007B00000222146501E00F041F80548046001E087
:1007C0000120F2E70020F0E71000002014000020D4
:1007D0000C00002008B500BF002000900E48006803
:1007E00040F480400C4908600846006800F48040EE
:1007F000009000BF00BF00BF00200090081F0068ED
:1008000040F08050091F08600846006800F08050E2
:10081000009000BF00BF08BD4438024001460846B2
:10082000002809DB00F01F0301229A4043099B00C6
:1008300003F1E023C3F8002100BF70472DE9F05F0A
:1008400080460D461646002701F0A4F807463946B3
:100850002A46334601F00700C0F1070ABAF1040F37
:1008600002D94FF0040A01E0C0F1070AD14600F1B5
:10087000040ABAF1070F02D24FF0000A01E0A0F11A
:10088000030AD4464FF0010A0AFA09FAAAF1010A4A
:100890000AEA020A0AFA0CFA4FF0010B0BFA0CFBF7
:1008A000ABF1010B0BEA030B4AEA0B04214640466D
:1008B00001F078F8BDE8F09F00BF00F00702064B9A
:1008C00019684FF6FF031940044B0B4343EA02211A
:1008D000014B196000BF70470CED00E00000FA0505
:1008E00070B504460D460CB9012070BD584800682B
:1008F00000F00F00A84209D255490D700846006863
:1009000000F00F00A84201D00120EEE7207800F0AF
:10091000020002281DD1207800F00400042805D12F
:100920004C48006840F4E0504A490860207800F0E4
:100930000800082805D14748006840F46040454950
:1009400008604448006820F0F000A168084341496D
:100950000860207800F00100A8B36068012807D182
:100960003C4808380068C0F34040B8B90120BCE7F3
:100970006068022802D06068032807D1354808382B
:100980000068C0F3406048B90120AEE7314808383C
:100990000068C0F3400008B90120A6E72D480068B0
:1009A00020F00300616808432A490860FFF7BCFE95
:1009B000064609E0FFF7B8FE801B41F28831884205
:1009C00002D9032091E707E02248006800F00C00FC
:1009D0006168B0EB810FEDD11D48006800F00F0099
:1009E000A84209D91A490D700846006800F00F00A6
:1009F000A84201D0012078E7207800F00400042804
:100A000007D11448006820F4E050E1680843114918
:100A10000860207800F00800082808D10D48006818
:100A200020F46040216940EAC1000A49086000F0F2
:100A30003DF808490968C1F30311074A515CC840F1
:100A4000064908600020FFF79FFE00204DE70000E8
:100A5000003C0240083802401A1A00081400002026
:100A600001480068704700001400002000B5FFF73F
:100A7000F7FF04490968C1F38221034A515CC84069
:100A800000BD0000083802402A1A000800B5FFF730
:100A9000E7FF04490968C1F34231034A515CC84089
:100AA00000BD0000083802402A1A00082DE9F0476E
:100AB000002400250026A1462548006800F00C000F
:100AC00020B1042805D008283AD105E0DFF8849049
:100AD00039E0DFF8849036E01D48001F006800F020
:100AE0003F041B48001F006800F4800078B11A48DA
:100AF0001749091F0968C1F38811A0FB017001465D
:100B0000224600233846FFF7AFFB05460EE01148AA
:100B10000F49091F0968C1F38811A0FB0170014644
:100B2000224600233846FFF79FFB05460848001F72
:100B30000068C0F30140401C4600B5FBF6F902E036
:100B4000DFF8109000BF00BF4846BDE8F087000006
:100B5000083802400024F400001BB700F8B5044632
:100B60000CB90120F8BD207800F00100002874D0F5
:100B7000F948006800F00C0004280DD0F648006821
:100B800000F00C00082813D1F348001F006800F49F
:100B90008000B0F5800F0BD1EF4808380068C0F333
:100BA0004040002859D06068002856D10120D9E77C
:100BB00000BF6068B0F5803F08D1E748083800689A
:100BC00040F48030E449083908601EE06068B0F500
:100BD000A02F0DD1E0480838006840F48020DE499D
:100BE000083908600846006840F4803008600CE06E
:100BF000D9480838006820F48030D749083908609F
:100C00000846006820F48020086000BF606890B14A
:100C1000FFF78AFD054606E0FFF786FD401B6428C6
:100C200001D903209EE7CC4808380068C0F3404053
:100C30000028F1D011E0FFF777FD054606E0FFF749
:100C400073FD401B642801D903208BE7C248083894
:100C50000068C0F340400028F1D1207800F0020085
:100C600002285FD1BC48006800F00C0058B1BA48B7
:100C7000006800F00C0008281CD1B748001F00686D
:100C800000F48000B0B9B44808380068C0F34000F0
:100C900020B1E068012801D0012063E7AE480838A0
:100CA000006820F0F800216940EAC100AA4908392B
:100CB000086037E0E06800B30120A8490860FFF74A
:100CC00033FD054606E0FFF72FFD401B022801D942
:100CD000032047E7A04808380068C0F34000002818
:100CE000F1D09D480838006820F0F800216940EAFA
:100CF000C10099490839086014E00020974908604C
:100D0000FFF712FD054606E0FFF70EFD401B022827
:100D100001D9032026E7904808380068C0F3400056
:100D20000028F1D1207800F0080008282CD1606953
:100D3000A8B101208A490860FFF7F6FC054606E0E5
:100D4000FFF7F2FC401B022801D903200AE7824882
:100D50006C300068C0F340000028F1D014E000209F
:100D60007F490860FFF7E0FC054606E0FFF7DCFC82
:100D7000401B022801D90320F4E677486C30006854
:100D8000C0F340000028F1D1207800F004000428CE
:100D900070D1002670483830006800F0805090B95B
:100DA00000BF002000906C483830006840F0805050
:100DB0006949383108600846006800F080500090AA
:100DC00000BF00BF01266748006800F48070B0B91A
:100DD0006448006840F4807062490860FFF7A4FC32
:100DE000054606E0FFF7A0FC401B022801D90320BE
:100DF000B8E65C48006800F480700028F2D000BFBC
:100E0000A068012808D154486830006840F001000B
:100E10005149683108601DE0A06805280DD14E4891
:100E20006830006840F004004B49683108600846AB
:100E3000006840F0010008600CE047486830006836
:100E400020F001004449683108600846006820F03D
:100E50000400086000BFA068A8B1FFF765FC054664
:100E600009E0FFF761FC401B41F28831884202D95A
:100E7000032077E626E0384868300068C0F3400079
:100E80000028EED013E0FFF74FFC054608E0FFF71F
:100E90004BFC401B41F28831884201D9032061E6B6
:100EA0002D4868300068C0F340000028EFD1012EC3
:100EB00007D129483830006820F080502649383161
:100EC000086000BFA069B8B32348006800F00C00B8
:100ED00008285ED0A069022846D100201F49086674
:100EE000FFF722FC054606E0FFF71EFC401B022828
:100EF00001D9032036E6184808380068C0F340607E
:100F00000028F1D1D4E907010843616A40EA811160
:100F10000122A06AC2EB500041EA00412C20005D92
:100F200041EA00600C49091F086001200B4908666E
:100F3000FFF7FAFB054607E02DE0FFF7F5FB401B46
:100F4000022801D903200DE6034808380068C0F3E1
:100F500040600028F1D01EE00838024000004742FF
:100F6000800E47420070004000200C490866FFF7E1
:100F7000DBFB054606E0FFF7D7FB401B022801D943
:100F80000320EFE506480068C0F340600028F2D176
:100F900001E00120E6E50020E4E500000000474212
:100FA0000038024070B504462546681EB0F1807FC7
:100FB00001D301200FE0681E4FF0E02148610F21AE
:100FC0004FF0FF3000F0EEFC00204FF0E021886190
:100FD00007200861002070BD10B504460CB901203F
:100FE00010BDA06900B100E000BF94F8390028B935
:100FF000002084F83800204600F028F8242084F8E7
:1010000039002068C06820F400502168C86020467C
:1010100000F080FA2068006920F49040216808619F
:101020002068406920F02A00216848612068C06873
:1010300040F400502168C8600020E063202084F85C
:10104000390084F83A000020CAE7000010B586B0E5
:101050000446142101A8FFF77EF94D492068884213
:1010600056D100BF002000904A48006840F01000B0
:10107000484908600846006800F01000009000BF72
:1010800000BF00BF0020009042481438006840F0C4
:1010900002004049143908600846006800F0020068
:1010A000009000BF00BF00BF00200090084600680D
:1010B00040F0010008600846006800F00100009060
:1010C00000BF00BF80200190022002900120039009
:1010D000032004900720059001A92F48FFF714FA78
:1010E0004FF4007001900220029001200390032031
:1010F00004900720059001A92848FFF705FA00226F
:1011000011462520FFF79AFB2520FFF787FB3CE0DF
:1011100023492068884238D100BF002000901D4834
:10112000006840F020001B4908600846006800F095
:101130002000009000BF00BF00BF002000901548B5
:101140001438006840F0400012491439086008461D
:10115000006800F04000009000BF00BF4FF48440E2
:1011600001900220029001200390032004900820A7
:10117000059001A90B48FFF7C7F900221146472047
:10118000FFF75CFB4720FFF749FB06B010BD0000EE
:1011900000100140443802400004024000000240B8
:1011A00000140140001802402DE9F84304460D46A2
:1011B00016461F464FF0000994F8390020285CD1EC
:1011C00005B116B90120BDE8F88300BF94F83800D6
:1011D000012801D10220F6E7012084F8380000BF81
:1011E0000020E063212084F83900FFF79DFA814652
:1011F000A684E6842BE0E08C401EE084A068B0F575
:10120000805F16D14B46002280212046009700F0D7
:1012100035FB08B10320D6E7A846B8F80000C0F3B4
:10122000080021684860206908B9AD1C0FE06D1CFA
:101230000DE04B46002280212046009700F01EFB67
:1012400008B10320BFE715F8010B21684860E08C66
:101250000028D0D14B46002240212046009700F0C4
:101260000DFB08B10320AEE7202084F8390000BF51
:10127000002084F8380000BFA5E70220A3E700BFE4
:10128000FEE7000000B587B0142102A8FFF763F85D
:1012900000BF002001903548006840F0400033490D
:1012A00008600846006800F04000019000BF00BFE1
:1012B00000BF002001900846006840F0010008606F
:1012C0000846006800F00100019000BF00BF00BFA9
:1012D000002001900846006840F0020008600846BF
:1012E000006800F00200019000BF00BF00BF0020B6
:1012F00001900846006840F0080008600846006851
:1013000000F00800019000BF00BF00BF0020019066
:101310000846006840F0800008600846006800F059
:101320008000019000BF00BF01224FF4E05110483F
:10133000FFF7F3F960200290022003900020049050
:10134000032005900720069002A90A48FFF7DCF861
:101350004FF4E05002900120039004900220059089
:1013600002A90348FFF7D0F807B000BD30380240AB
:10137000001C0240000C024010B50B480B490860ED
:101380004FF416504860002108488160C160016137
:101390000C21416100218161C161FFF71DFE08B18F
:1013A000FFF7B1F810BD0000001001404C00002014
:1013B00010B50B480B4908604FF4165048600021E7
:1013C00008488160C16001610C2141610021816197
:1013D000C161FFF701FE08B1FFF795F810BD0000ED
:1013E000001401408C00002000BFFEE770477047EA
:1013F000704710B5FFF79EF910BD000000B593B01F
:10140000302107A8FEF7A7FF142102A8FEF7A3FFCB
:1014100000BF002001902448006840F0805022491D
:1014200008600846006800F08050019000BF00BFCF
:1014300000BF002001901D48006840F480401B4917
:1014400008600846006800F48040019000BF00BFBB
:10145000012007900004089002200D9041050E9194
:1014600006210F91A82110910221119104211291BE
:1014700007A8FFF773FB08B1FFF745F80F200290AC
:1014800002200390002004904FF4A05005904FF4E8
:1014900080500690052102A8FFF722FA08B1FFF755
:1014A00032F813B000BD0000403802400070004028
:1014B0001448006840F4700012490860124800683F
:1014C00040F001001049086000200F490831086011
:1014D0000D4800680D4908400B4908600C48091D7B
:1014E0000860081F006820F48020091F08600020A1
:1014F00005490C3108604FF00060024980390860EE
:101500007047000088ED00E000380240FFFFF6FE63
:10151000103000242DE9F04104462068006920F4D1
:101520004050E1680843216808612169A0680843C8
:1015300061690843E16940EA01052068C06849F231
:101540000C61884328432168C8602068406920F402
:101550004070A169084321684861E069B0F5004F17
:101560007ED1C4492068884203D0C349206888429C
:101570005DD1FFF78BFA00EBC00101EB0010616851
:101580004900B0FBF1F06421B0FBF1F00601FFF778
:101590007DFA00EBC00101EB001061684900B0FB6F
:1015A000F1F7FFF773FA00EBC00101EB001061687F
:1015B0004900B0FBF1F06421B0FBF1F000EBC00199
:1015C00001EB0010A7EB8000322101EBC000642189
:1015D000B0FBF1F000F0F80006EB4006FFF756FA1A
:1015E00000EBC00101EB001061684900B0FBF1F7AE
:1015F000FFF74CFA00EBC00101EB001061684900F5
:10160000B0FBF1F06421B0FBF1F000EBC00101EBA5
:101610000010A7EB8000322101EBC0006421B0FB79
:10162000F1F000F0070030442168886020E1FFF706
:101630001DFA00EBC00101EB001061684900B0FB2E
:10164000F1F06421B0FBF1F00601FFF70FFA00EBB7
:10165000C00101EB001061684900B0FBF1F700E048
:1016600045E0FFF703FA00EBC00101EB00106168F1
:101670004900B0FBF1F06421B0FBF1F000EBC001D8
:1016800001EB0010A7EB8000322101EBC0006421C8
:10169000B0FBF1F000F0F80006EB4006FFF7E6F9CA
:1016A00000EBC00101EB001061684900B0FBF1F7ED
:1016B000FFF7DCF900EBC00101EB001061684900A5
:1016C000B0FBF1F06421B0FBF1F000EBC00101EBE5
:1016D0000010A7EB8000322101EBC0006421B0FBB9
:1016E000F1F000F00700304421688860C0E06149F3
:1016F0002068884203D06049206888425CD1FFF7A7
:10170000C5F900EBC00101EB001061688900B0FB76
:10171000F1F6FFF7BBF900EBC00101EB00106168C7
:101720008900B0FBF1F06421B0FBF1F000EBC001E7
:1017300001EB0010A6EB8000322101EB00106421C8
:10174000B0FBF1F000F0F006FFF7A0F900EBC001EC
:1017500001EB001061688900B0FBF1F06421B0FB7F
:10176000F1F006EB0016FFF791F900EBC00101EB79
:10177000001061688900B0FBF1F7FFF787F900EB13
:10178000C00101EB001061688900B0FBF1F0642139
:10179000B0FBF1F000EBC00101EB0010A7EB800003
:1017A000322101EB00106421B0FBF1F000F00F00DA
:1017B0003044216888605BE0FFF758F900EBC00116
:1017C00001EB001061688900B0FBF1F6FFF74EF9FC
:1017D00000EBC00101EB001061688900B0FBF1F083
:1017E0006421B0FBF1F000EBC00101EB0010A6EBAF
:1017F0008000322101EB00106421B0FBF1F000F019
:10180000F006FFF733F900EBC00101EB001061684F
:101810008900B0FBF1F06421B0FBF1F006EB00169B
:10182000FFF724F900EBC00101EB001061688900AB
:10183000B0FBF1F7FFF71AF900EBC00101EB001064
:1018400061688900B0FBF1F06421B0FBF1F000EBBE
:10185000C00101EB0010A7EB8000322101EB00106A
:101860006421B0FBF1F000F00F0030442168886083
:10187000BDE8F08100100140001401402DE9F04165
:1018800004460D4617469846069E21E0701CF8B1A6
:101890002EB1FEF749FFA0EB0800B04218D920682E
:1018A000C06820F4D0702168C8602068406920F0CA
:1018B000010021684861202084F8390084F83A004A
:1018C00000BF002084F8380000BF0320BDE8F0818D
:1018D000206800682840A84201D1012000E00020D3
:1018E000B842D3D00020F1E710B510480068006876
:1018F00000F02000C8B10E480068322812DA0B4808
:10190000006840680B490A4A126888540848006811
:10191000401C074908606423042207A10348FFF71D
:1019200043FC02E000200249086010BD4C0000208A
:1019300004000020180000206F6B0D0A000000005A
:1019400008B511480068006800F0200050B10E484A
:1019500000684068C0B200904FF400610B48FEF789
:10196000D3FE10E008480068006800F0100050B195
:10197000054800684068C0B2009000224FF4006142
:101980000248FEF7CAFE08BD8C000020001C024081
:1019900000BFFEE702480068C0F302207047000065
:1019A0000CED00E010B5002804DB0A07130E054A11
:1019B000135406E00A07140E034A00F00F031B1F1E
:1019C000D45410BD00E400E018ED00E0FEF7BEFEC8
:1019D000FFF714FDFFF756FCFFF7CEFCFFF7E8FC1E
:1019E00012E00A480068401C084908600846006880
:1019F000642801DD002008600448006842000348B4
:101A000001680220FEF70CFDEBE70000000000205B
:101A10004FF04070E1EE100A704700000000000037
:101A2000000001020304060708090000000001028B
:101A300003040000541A00080000002018000000F1
:101A4000C40100086C1A0008180000207807000084
:101A5000E00100080000000000000000000000009D
:0C1A600010000000010000000024F40051
:040000050800018965
:00000001FF
