:020000040800F2
:10000000600700202902000841110008F50F0008D0
:100010003D110008D9040008351400080000000054
:10002000000000000000000000000000491100086E
:10003000DD04000800000000451100084D11000813
:10004000430200084302000843020008430200087C
:10005000430200084302000843020008430200086C
:10006000430200084302000843020008430200085C
:10007000430200084302000843020008430200084C
:10008000430200084302000843020008430200083C
:10009000430200084302000843020008430200082C
:1000A000430200084302000843020008430200081C
:1000B000430200084302000843020008430200080C
:1000C00043020008430200084302000843020008FC
:1000D00043020008430200084302000843020008EC
:1000E00043020008430200084302000843020008DC
:1000F00043020008430200084302000843020008CC
:1001000043020008430200084302000843020008BB
:1001100043020008430200084302000843020008AB
:10012000430200084302000843020008430200089B
:10013000430200084302000843020008430200088B
:10014000430200084302000843020008430200087B
:10015000430200084302000843020008430200086B
:10016000430200084302000843020008430200085B
:100170004302000843020008430200080000000098
:10018000430200084302000800F002F800F03CF8C7
:100190000AA090E8000C82448344AAF10107DA45E2
:1001A00001D100F031F8AFF2090EBAE80F0013F0F8
:1001B000010F18BFFB1A43F001031847701300002A
:1001C00090130000103A24BF78C878C1FAD85207BB
:1001D00024BF30C830C144BF04680C6070470000C1
:1001E0000023002400250026103A28BF78C1FBD840
:1001F000520728BF30C148BF0B6070471FB501F0E0
:100200007CF91FBD10B510BD00F0D0F81146FFF706
:10021000F5FF01F011F900F0EEF803B4FFF7F2FF7B
:1002200003BC00F0F5F80000094880470948004782
:10023000FEE7FEE7FEE7FEE7FEE7FEE7FEE7FEE796
:10024000FEE7FEE704480549054A064B70470000F3
:10025000511100088901000860010020600700209A
:10026000600300206003002053EA020C00F0698064
:100270002DE9F04B4FF00006002B1FBFB3FA83F5BA
:1002800003FA05F424FA05F65E4012BF1643B2FAEB
:1002900082F502FA05F4C5F120051EBF22FA05FC1D
:1002A00044EA0C04203556EA044C4FEA144418BFC3
:1002B000641C4FF000084FF00009904271EB030CF2
:1002C00039D3002919BFB1FA81F701FA07F6B0FA5C
:1002D00080F700FA07F6C7F120071EBF20FA07FCD7
:1002E00046EA0C062037B6FBF4FCA7EB0507103FE7
:1002F00007F01F0BCBF120062CFA06F60CFA0BFBCD
:1003000044BFB3460026202FA4BF5E464FF0000B2B
:100310005BEA060C08BF4FF0010B19EB0B0948EB29
:100320000608ABFB027C06FB02CC0BFB03CCC01B1C
:1003300071EB0C01C1E70B46024641464846BDE859
:10034000F08B13B5084318BF4FF0FF300146AFF3F1
:100350000080BDE81C4070474FF0000200B5134616
:1003600094469646203922BFA0E80C50A0E80C50D5
:10037000B1F12001BFF4F7AF090728BFA0E80C5086
:1003800048BF0CC05DF804EB890028BF40F8042B7F
:1003900008BF704748BF20F8022B11F0804F18BFEC
:1003A00000F8012B7047704770477047754600F0A2
:1003B0002BF8AE4605006946534620F007008546F7
:1003C00018B020B5FFF73EFFBDE820404FF0000613
:1003D0004FF000074FF000084FF0000BAC46ACE8C0
:1003E000C009ACE8C009ACE8C009ACE8C00921F01C
:1003F00007018D46704710B50446AFF300802046D4
:10040000BDE81040FFF709BF00487047100000200A
:1004100001491820ABBEFEE726000200704700002D
:1004200083B070B581B00DF1140C8CE80E0005A9F5
:10043000009140F27001C2F200014FF6AA720A80E8
:10044000F1228A7082004FF0040ECA70D0B14FF0D2
:10045000000C00BF009A0138131D009312685FFA68
:100460008EF3CA54150A43F00206120C43F001043D
:1004700043F003038A550EF1040E02060D5501F8F0
:1004800003C0E7D1C8786FF00302A2EB000C002391
:100490004FF0FF30002200BF0C1864780130224476
:1004A0000CEB000401341344F6D15FFA8EF040F0F7
:1004B00001060A5440F20400C2F200004EF00202AB
:1004C00000688B55D2B2FF2300F0F6FC01B0BDE806
:1004D000704003B070470000FEE700007047000066
:1004E000704700002DE9F04F82B000F13E4241F626
:1004F000004502F1FF77C4F2020543F6004E4FEAD1
:10050000B7260822A842C4F2010E08BF0722072E10
:100510004FF001054FF000064FF000044FF00008C7
:1005200038BF4FEAB722009209E000BF08F1010886
:100530000234B8F1100F06F1040600F09D800F6838
:1005400005FA08FC17EA0C09F0D04F6847F01007CD
:10055000122F12D16FF0030202EA5807074406F087
:100560001C050F22D7F820A002FA05F30A692AEA2F
:100570000303AA4001251A433A6202680323D1F813
:1005800004A0A3406FEA030B9A430AF00303A340BD
:100590001A43BAF1120F026014D805FA0AF212F0E7
:1005A000061F0FD08268CB6802EA0B02A3401A43F1
:1005B00082604268CAF3001322EA0C0203FA08F3CD
:1005C0001A434260C2688B6802EA0B02A3401A43D6
:1005D0005FEACA03C260A9D5002243F64403019230
:1005E000C4F202031A684FF6084C42F480421A60C3
:1005F0001A68CFF6FF7C02F480420192019A28F03B
:100600000302724452F80C3006F00C070F25BD406F
:10061000AB43009D05FA07F73B4342F80C30DEF888
:1006200000204B6842EA0907DD0358BF22EA0907A8
:10063000CEF80070DEF804209D0342EA090758BF97
:1006400022EA0907CEF80470DEF80820DD0242EA4B
:10065000090743F60C4558BF22EA0907CEF808708F
:10066000C4F201052A689B0242EA090758BF22EA40
:1006700009072F60012559E702B0BDE8F08F00009F
:10068000002A08BF090481617047000040F2581039
:10069000C2F200000068704740F2080040F25811B2
:1006A000C2F20000C2F2000100780A68104408603B
:1006B0007047000080B543F60040C4F202000168B4
:1006C00041F400710160016841F4806101600168DA
:1006D00041F480710160032000F088F8002000F0F0
:1006E00005F800F02BF8002080BD0000B0B540F206
:1006F0000802C2F2000240F200011278C2F20001C8
:100700004FF47A730968B3FBF2F20446B1FBF2F1DD
:10071000084600F0FDFA0F2C4FF001050CD858B92F
:100720004FF0FF3021460022002500F033F840F260
:100730000C00C2F2000004602846B0BD82B0002068
:1007400043F640010190C4F202014A6842F480423B
:100750004A604A6802F480420192019A0090086857
:1007600040F080500860086800F0805000900098C9
:1007700002B07047002848BF704700F01F010122F7
:1007800002FA01F14EF200124009CEF2000242F8E4
:100790002010704710B54EF60C5CCEF2000CDCF861
:1007A0000030C3F3022E8EF00704042C28BF04246B
:1007B000BEF103034FF0FF3E0EFA04F438BF0023EE
:1007C000A14399400EFA03F39A43114300F16042AA
:1007D00000F00F03090102F56442043B6344002862
:1007E00048BF03F10C02117010BD00004EF60C5111
:1007F000CEF200010A684FF6FF031A4060F30A22A6
:1008000042F0806040F0FD70086070472DE9F041D3
:10081000002800F0878043F60808C4F20208044666
:10082000D8F8F8030D4600F00F00884207D288F888
:10083000F853D8F8F80300F00F00A84272D12068EE
:10084000810717D5410705D5D8F8001041F4E051CC
:10085000C8F80010010705D5D8F8001041F4604130
:10086000C8F80010D8F80010A26821F0F001114378
:10087000C8F80010C0073BD1D8F8F80300F00F000B
:10088000A84207D988F8F853D8F8F80300F00F0009
:10089000A84247D12068410707D5D8F80010E26880
:1008A00021F4E0511143C8F80010000708D5D8F82A
:1008B0000000216920F4604040EAC100C8F800004F
:1008C00000F078F8D8F8001041F21452C1F3031187
:1008D000C0F60002515C0024C84040F20001C2F2A0
:1008E000000108600020FFF701FF2046BDE8F0810D
:1008F0006068811E022907D258F8081C89015CBF74
:100900000120BDE8F08110E0012807D158F8081C4B
:1009100089035CBF0120BDE8F08106E058F8081C9F
:10092000890702D40120BDE8F081D8F8001021F039
:1009300003010843C8F80000FFF7A8FE064641F28D
:10094000883700BFD8F80000616800F00C00B0EBF9
:10095000810F91D0FFF79AFE801BB842F2D9032095
:10096000BDE8F08140F2000043F60801C2F2000049
:10097000C4F202010068096841F22452C1F38221E5
:10098000C0F60002515CC8407047000040F2000011
:1009900043F60801C2F20000C4F2020100680968CF
:1009A00041F22452C1F34231C0F60002515CC8400A
:1009B0007047000010B543F60404C4F202046068F6
:1009C00000F00C0008280AD0042819BF42F20040A9
:1009D000C0F2F40041F60030C0F2B70010BD20684C
:1009E00021682368490241F60031C0F2B70100F0E6
:1009F0003F02C3F388105CBF42F20041C0F2F40131
:100A0000A1FB00010023FFF72FFC21680222C1F3A4
:100A1000014102EB4101B0FBF1F010BD2DE9F041C5
:100A200082B0002876D00446007843F60006C0075E
:100A3000C4F2020643D0B06800F00C00042816D0BF
:100A4000B06800F00C00082802D1706840020ED493
:100A50006568B5F5A02F10D0B5F5803F11D030688E
:100A600020F480303060306820F480200CE0306862
:100A7000800324D5606810BB4CE0306840F48020CF
:100A80003060306840F480303060FFF7FFFD002DAB
:100A9000054611D03068800311D4FFF7F7FD401BE5
:100AA0006428F7D9F6E000BFFFF7F0FD401B64288B
:100AB0004FF0030000F2248130688003F4D42078E2
:100AC000800718D5B06810F00C0F07D0B06800F0A0
:100AD0000C0008285FD1706840025CD43068800741
:100AE00002D5E068012815D13068216920F0F800AE
:100AF00040EAC1003060207800070FD4207840071A
:100B000023D4A569002D00F0FE80B06800F00C0031
:100B1000082871D1012002B0BDE8F0816069002889
:100B200040F20000C4F2472056D00121C0F8801ED8
:100B3000FFF7ACFD054600BF706F8007DED4FFF7FE
:100B4000A5FD401B0228F7D9A4E0306C10F08058B6
:100B50000AD100200190306C40F080503064306C3D
:100B600000F080500190019847F20007C4F200079E
:100B70003868C00523D4386840F480703860FFF7C7
:100B800085FD05463868C00519D4FFF77FFD401B79
:100B90000228F7D97EE0E06800284ED00020C4F299
:100BA000472001210160FFF771FD0546306880078D
:100BB0009AD4FFF76BFD401B0228F7D96AE0A568BD
:100BC000052D4FD0012D51D0306F20F0010030673E
:100BD000306F20F004004CE00021C0F8801EFFF7C9
:100BE00055FD0546706F80077FF588AFFFF74EFD16
:100BF000401B0228F6D94DE00027C4F24727002009
:100C00003866FFF743FD022D05460BD130688001A1
:100C100057D5FFF73BFD401B02284FF00300F5D9E5
:100C20006EE000BF306880016DD5FFF72FFD401BDF
:100C300003284FF00300F5D362E00020C4F2472000
:100C400000210160FFF722FD054600BF30688007E4
:100C50007FF551AFFFF71AFD401B02284FF003004C
:100C6000F4D94DE0306F40F004003067306F40F051
:100C700001003067FFF70AFD002D054641F2883775
:100C800013D000BF306F800712D4FFF7FFFC401B6A
:100C9000B842F7D9032002B0BDE8F081FFF7F6FCB7
:100CA000401BB8424FF003002AD8306F8007F5D4BC
:100CB000B8F1000F7FF425AF306C20F08050306425
:100CC0001FE704F11C052FCD084340EA8210D90329
:100CD0004FF6FF729143A1F5803140EA0560084369
:100CE000706001203866FFF7D1FC0446306880014F
:100CF00009D4FFF7CBFC001B02284FF00300F5D905
:100D000002B0BDE8F081002002B0BDE8F081000033
:100D1000411E0020B0EB116F1CBF012070474EF246
:100D20001002CEF2000251604EF62351CEF20001C5
:100D3000F0230B700721906011607047002804BFFA
:100D40000120704710B5044690F8390028B90020FA
:100D500084F83800204600F021F8242084F8390077
:100D60002068C16821F40051C160204600F01CFADF
:100D70002068016921F490410161416921F02A0153
:100D80004161C16841F40051C16000202021E0634D
:100D900084F8391084F83A1010BD00002DE9F041B4
:100DA00086B0006841F20042C4F201020021904284
:100DB000CDE90411CDE90211019145D041F20001C4
:100DC000C4F20101884274D1002043F63001009042
:100DD000C4F202014A69002442F010024A614A69E1
:100DE000C4F2020402F010020092009A00900A6815
:100DF0004FF0020842F002020A600A68012602F07F
:100E000002020092009A00900868032740F0010057
:100E100008600868072500F0010000900098802015
:100E2000019004F5806001A9CDF80880039604972D
:100E30000595FFF757FB4FF40070CDE90108CDE9A8
:100E400003670595252528E043F630000091C4F29C
:100E500002004269472542F020024261426902F0E5
:100E600020020092009A0091016841F04001016067
:100E7000006800F04000009000984FF4844001901A
:100E80000220029001200390032004900820059086
:100E90000020C4F2020000F5C05401A92046FFF76B
:100EA00021FB284600210022FFF774FC2846FFF7AB
:100EB00061FC06B0BDE8F0812DE9F041044690F8F0
:100EC000390020280ED10F4600294FF0010000F014
:100ED0008E801646002A08BFBDE8F08194F83800DD
:100EE000012802D10220BDE8F081012084F83800F9
:100EF0000020E06321201D4684F83900FFF7C6FB7F
:100F0000A684E684E18C8046002944D06E1C05E06E
:100F100017F8010B21684860E08CE0B3E08C0138E1
:100F2000E0842068A1680068B1F5805F00F080006F
:100F300004D1B8B99EB165B935E000BF0028E7D14A
:100F40003EB305BB2FE000BF016809060AD4002E9E
:100F5000FAD0FFF79BFBA0EB0800A84223D820683B
:100F6000F2E700BF3888216922686FF35F2000290B
:100F7000506014BF01370237CEE700BF0168090691
:100F8000C6D4002EFAD0FFF781FBA0EB0800A842E0
:100F900009D82068F2E720680068400620D415B11F
:100FA0006E1C10D015E02068C16821F4D071C160BA
:100FB000416921F001014161202084F8390084F861
:100FC0003A00032010E020680168490608D4002E8A
:100FD000FAD0FFF75BFBA0EB0800A842F3D9E2E7E9
:100FE000202084F839000020002184F83810BDE862
:100FF000F0810000FEE700002DE9F04186B00025F9
:1010000043F630000595CDE90355CDE9015500952E
:10101000C4F20200016841F6004441F04001016061
:101020000168C4F2020401F04001009100990095AA
:101030000168012241F00101016001684FF4E058AC
:1010400001F001010091009900950168012741F02C
:1010500002010160016801F0020100910099009510
:10106000016841F008010160016801F00801009188
:1010700000990095016841F08001016000684FF41B
:10108000E05100F08000009000982046FFF7F8FA49
:101090006020019002260320CDE90265049007201C
:1010A00001AD0590A4F580502946FFF71BFA2046B4
:1010B0002946CDE90187CDE90376FFF713FA06B09B
:1010C000BDE8F08180B540F2D40041F20001C2F2E7
:1010D0000000C4F2010100234FF00C0C4FF4165233
:1010E00080E80E00C0E90333C0E905C3C361FFF720
:1010F00025FE002808BF80BDBDE88040FFF7F0B99D
:1011000080B540F2141041F20041C2F20000C4F276
:10111000010100234FF00C0C4FF4165280E80E0032
:10112000C0E90333C0E905C3C361FFF707FE002828
:1011300008BF80BDBDE88040FFF7D2B9FEE70000E0
:10114000704700007047000070470000FFF7A4BA26
:101150004EF68850CEF2000001684FF0000C41F4CA
:101160007001016043F60001C4F202010A6842F016
:1011700001020A60C1F808C00B684FF6FF72CFF693
:10118000F6621A400A6043F21002C2F200424A605C
:101190000A6822F480220A60C1F80CC04FF0006196
:1011A00040F8801C704700002DE9F04381B00446F0
:1011B000006804F108030ECB0769194327F4405770
:1011C0003A430261626949F20C671143E269C368FC
:1011D00048F21F58BB4319431143C1604169A369D9
:1011E00021F440711943416141F20041B2F5004FD1
:1011F000C5F2EB1840F48060C4F2010145D1884289
:1012000040F08880FFF7C2FB6168192778434900E6
:10121000B0FBF1F0A0FB08016FF00F0000EA5106EF
:10122000FFF7B4FB616878434900B0FBF1F5FFF7C5
:10123000ADFB616878434900B0FBF1F04FF0640901
:10124000A0FB0801480900FB1950322101EBC00046
:10125000A0FB08014FF4F87000EA11100644FFF7F4
:1012600095FB616878434900B0FBF1F5FFF78EFB11
:10127000616878434900B0FBF1F0A0FB0801480920
:1012800000FB19500721C000C8E0884240F085806B
:10129000FFF77CFB6168192778438900B0FBF1F008
:1012A000A0FB08016FF00F0000EA5105FFF76EFB8D
:1012B000616878438900B0FBF1F6FFF767FB61686E
:1012C00078438900B0FBF1F04FF06409A0FB0801FE
:1012D000480900FB1960322101EB0010A0FB080156
:1012E000F02000EA51104619FFF750FB616878437F
:1012F0008900B0FBF1F5FFF749FB6168784389008D
:10130000B0FBF1F0A0FB0801480900FB19500F21C8
:10131000000183E0FFF726FB616819277843490045
:10132000B0FBF1F0A0FB08016FF00F0000EA5105DF
:10133000FFF718FB616878434900B0FBF1F6FFF74F
:1013400011FB616878434900B0FBF1F04FF064098C
:10135000A0FB0801480900FB1960322101EBC00025
:10136000A0FB08014FF4F87000EA11104619FFF7CE
:10137000F9FA616878434900B0FBF1F5FFF7F2FA3A
:10138000616878434900B0FBF1F0A0FB080148090F
:1013900000FB19500721C00040E0FFF7E3FA616845
:1013A000192778438900B0FBF1F0A0FB08016FF02A
:1013B0000F0000EA5105FFF7D5FA6168784389000C
:1013C000B0FBF1F6FFF7CEFA616878438900B0FB15
:1013D000F1F04FF06409A0FB0801480900FB196017
:1013E000322101EB0010A0FB0801F02000EA5110AF
:1013F0004619FFF7B7FA616878438900B0FBF1F549
:10140000FFF7B0FA616878438900B0FBF1F0A0FB08
:101410000801480900FB19500F2100013230A0FBE0
:10142000080201EA521021683043886001B0BDE82B
:10143000F0830000FEE7000092B0FFF73BF906AC36
:1014400020463021FEF788FF002543F64000059531
:10145000CDE90355CDE901550095C4F202000168BC
:10146000022641F080510160006800F08050009039
:10147000009847F200000095C4F20000016841F4B2
:1014800080410160006800F48040009000980120D5
:1014900006904FF4803007904FF480000D900620A6
:1014A0000E90A820CDE90F060420119020460C963E
:1014B000FFF7B4FA0F20CDE901064FF4A0500490D5
:1014C0004FF48050059001A805210395FFF79EF980
:1014D000FFF792FDFFF7F6FDFFF712FE40F25414FE
:1014E000C2F200042068411C6328C8BF00214A00E2
:1014F00002202160FEF794FFF4E7F1EE100A4FF6A8
:10150000FF71C0F2C03120EA010040F04070E1EE0E
:10151000100A7047000000000000000001020304F0
:101520000607080900000000010203045015000826
:101530000000002010000000C40100086015000831
:101540001000002050070000E0010008000000002B
:101550000024F400D400002001000000100000006E
:040000050800018965
:00000001FF
